:020000022000DC
:1060000000000120B5620200DD620200DF620200D2
:10601000E1620200E3620200E562020000000000AB
:10602000000000000000000000000000E762020025
:10603000E962020000000000EB620200ED62020073
:10604000AD910200EF62020091960200FDA40200F1
:10605000EF620200EF62020009A00200C592020096
:106060003D9602005996020075960200EF6202000A
:10607000EF620200EF620200EF620200EF620200D4
:10608000F18C020029C00200EF620200EF62020000
:1060900069C00200EF62020005020300EF62020025
:1060A000EF620200EF620200EF620200EF620200A4
:1060B000EF620200EF62020000000000000000003A
:1060C000EF620200EF620200EF620200EF62020084
:1060D000EF620200EF620200EF62020000000000C7
:1060E00000000000000000000000000000000000B0
:1060F00000000000000000000000000000000000A0
:10610000000000000000000000000000000000008F
:10611000000000000000000000000000000000007F
:10612000000000000000000000000000000000006F
:10613000000000000000000000000000000000005F
:10614000000000000000000000000000000000004F
:10615000000000000000000000000000000000003F
:10616000000000000000000000000000000000002F
:10617000000000000000000000000000000000001F
:10618000000000000000000000000000000000000F
:1061900000000000000000000000000000000000FF
:1061A00000000000000000000000000000000000EF
:1061B00000000000000000000000000000000000DF
:1061C00000000000000000000000000000000000CF
:1061D00000000000000000000000000000000000BF
:1061E00000000000000000000000000000000000AF
:1061F000000000000000000000000000000000009F
:1062000010B5054C237833B9044B13B10448AFF3F0
:1062100000800123237010BD5832002000000000D0
:10622000BCB2030008B5034B1BB103490348AFF3ED
:10623000008008BD000000005C320020BCB20300FA
:10624000154B002B08BF134B9D46A3F5803A002148
:106250008B460F461348144A121A11F0A1F90F4B3E
:10626000002B00D098470E4B002B00D09847002001
:10627000002104000D000D48002802D00C48AFF3A7
:10628000008011F04DF92000290001F013F911F000
:1062900033F900BF000008000000012000000000EA
:1062A0000000000058320020D05B002000000000F9
:1062B000000000000649074A074B9B1A03DD043B18
:1062C000C858D050FBDC00F039F8FFF7B9FF0000E8
:1062D00094B403006831002058320020FEE7FEE746
:1062E000FEE7FEE7FEE7FEE7FEE7FEE7FEE7FEE786
:1062F00080B400AFBFF34F8F00BF074BDB6803F4E0
:10630000E0620549054B1343CB60BFF34F8F00BFDD
:1063100000BF00BFFCE700BF00ED00E00400FA058D
:1063200080B400AF034B044A1A6000BFBD465DF85D
:10633000047B7047683100200090D00380B500AF27
:1063400000F060F90346002B06D09C4B1B681B0A2B
:106350009B4A03F01F03136000F086F90346002BED
:1063600002D0984B984A1A6000F0A0F90346002B1F
:1063700006D0964B1B685B0B954A03F0070313602E
:1063800000F0C6F90346002B05D0924BDB68914A1A
:1063900023F08073D36000F0DDF90346002B0ED0AC
:1063A0004FF080430022C3F80C214FF080430022BD
:1063B000C3F810214FF080430022C3F8382500F0C5
:1063C000FBF90346002B02D0834B03221A6000F036
:1063D00015FA0346002B0BD0804B05221A60804B28
:1063E00001221A607F4B00221A607F4B3F221A6005
:1063F00000F026FA0346002B76D04FF080537B4AFC
:10640000D3F80434C2F820354FF08053774AD3F8DC
:106410000834C2F824354FF08053744AD3F80C3452
:10642000C2F828354FF08053704AD3F81034C2F8C0
:106430002C354FF080536D4AD3F81434C2F8303500
:106440004FF08053694AD3F81834C2F834354FF00E
:106450008053664AD3F81C34C2F840354FF080535D
:10646000624AD3F82034C2F844354FF080535F4A73
:10647000D3F82434C2F848354FF080535B4AD3F840
:106480002834C2F84C354FF08053584AD3F82C3496
:10649000C2F850354FF08053544AD3F83034C2F824
:1064A00054354FF08053514AD3F83434C2F8603534
:1064B0004FF080534D4AD3F83834C2F864354FF06A
:1064C00080534A4AD3F83C34C2F868354FF08053C1
:1064D000464AD3F84034C2F86C354FF08053434AF3
:1064E000D3F84434C2F8703500F0CCF90346002BE1
:1064F00005D03F4B1B683F4A03F04F03136000F089
:10650000F3F90346002B0DD04FF08043D3F800344D
:1065100003F00103002B05D04FF080436FF0010220
:10652000C3F8002400F012FA0346002B05D0324BCA
:106530001B68314A43F480631360304BD3F88830D2
:106540002E4A43F47003C2F88830BFF34F8F00BF68
:10655000BFF36F8F00BF4FF01023D3F80C3203F05E
:106560000103012B25D1264B0122C3F8042500BFCE
:10657000234BD3F80034002BFAD04FF01023D3F87C
:106580000C324FF0102223F00103C2F80C3200BF8E
:106590001B4BD3F80034002BFAD0194B0022C3F860
:1065A000042500BF164BD3F80034002BFAD0FFF7B8
:1065B0009FFEFFF7B5FE00BF80BD00BF24030010A3
:1065C0004035014074C007400DF0ADBA44020010E0
:1065D0003C050040F0ED00E0A005004010560040F2
:1065E00088560040185600401456004000C0004035
:1065F00058020010E40E00403C17004000ED00E09F
:1066000000E0014080B400AF144B1B68DBB2062BE6
:106610001DD1134B1B6803F00F03002B17D1114B37
:106620001B6803F0F003302B01D1012310E00D4B68
:106630001B6803F0F003402B01D1012308E0094B54
:106640001B6803F0F003502B01D1012300E000236D
:106650001846BD465DF8047B704700BFE00F00F0B0
:10666000E40F00F0E80F00F080B400AF0C4B1B68A3
:10667000DBB2062B0DD10B4B1B6803F00F03002B75
:1066800007D1094B1B6803F0F003302B01D1012324
:1066900000E000231846BD465DF8047B704700BF4C
:1066A000E00F00F0E40F00F0E80F00F080B400AF5E
:1066B000144B1B68DBB2062B1DD1134B1B6803F078
:1066C0000F03002B17D1114B1B6803F0F003302B85
:1066D00001D1012310E00D4B1B6803F0F003402BA8
:1066E00001D1012308E0094B1B6803F0F003502B94
:1066F00001D1012300E000231846BD465DF8047B6C
:10670000704700BFE00F00F0E40F00F0E80F00F06A
:1067100080B400AF0C4B1B68DBB2062B0DD10B4BCA
:106720001B6803F00F03002B07D1094B1B6803F014
:10673000F003302B01D1012300E000231846BD46B1
:106740005DF8047B704700BFE00F00F0E40F00F03D
:10675000E80F00F080B400AF144B1B68DBB2062BCF
:106760001DD1134B1B6803F00F03002B17D1114BE6
:106770001B6803F0F003302B01D1012310E00D4B17
:106780001B6803F0F003402B01D1012308E0094B03
:106790001B6803F0F003502B01D1012300E000231C
:1067A0001846BD465DF8047B704700BFE00F00F05F
:1067B000E40F00F0E80F00F080B400AF0C4B1B6852
:1067C000DBB2062B0DD10B4B1B6803F00F03002B24
:1067D00007D1094B1B6803F0F003302B01D10123D3
:1067E00000E000231846BD465DF8047B704700BFFB
:1067F000E00F00F0E40F00F0E80F00F080B400AF0D
:106800000C4B1B68DBB2062B0DD10B4B1B6803F046
:106810000F03002B07D1094B1B6803F0F003302B4B
:1068200001D1012300E000231846BD465DF8047B3A
:10683000704700BFE00F00F0E40F00F0E80F00F039
:1068400080B400AF0C4B1B68DBB2062B0DD10B4B99
:106850001B6803F00F03002B07D1094B1B6803F0E3
:10686000F003502B01D1012300E000231846BD4660
:106870005DF8047B704700BFE00F00F0E40F00F00C
:10688000E80F00F080B400AF144B1B68DBB2062B9E
:106890001DD1134B1B6803F00F03002B17D1114BB5
:1068A0001B6803F0F003302B01D1012310E00D4BE6
:1068B0001B6803F0F003402B01D1012308E0094BD2
:1068C0001B6803F0F003502B01D1012300E00023EB
:1068D0001846BD465DF8047B704700BFE00F00F02E
:1068E000E40F00F0E80F00F080B400AF144B1B6819
:1068F000DBB2062B1DD1134B1B6803F00F03002BDB
:1069000017D1114B1B6803F0F003302B01D1012389
:1069100010E00D4B1B6803F0F003402B01D1012365
:1069200008E0094B1B6803F0F003502B01D1012351
:1069300000E000231846BD465DF8047B704700BFA9
:10694000E00F00F0E40F00F0E80F00F080B400AFBB
:10695000074B1B68062B05D1064B1B68062B01D184
:10696000012300E000231846BD465DF8047B704714
:106970003001001034010010A8DF704700BF184636
:1069800062DF704700BF184680B584B000AF786002
:1069900039603B680633FB60FB681A887B685B885C
:1069A0009A420FD1FB685B89012B0BD17B685B6935
:1069B000002B07D07B685B693A689088FA68127B85
:1069C0007968984700BF1037BD4680BD80B584B058
:1069D00000AF786039603B68FB607B681B88502B98
:1069E00004D17968F868FFF7CFFF00E000BF00BF6F
:1069F0001037BD4680BD000090B593B000AF786001
:106A000039603B681A687B685A61484B07F1080493
:106A10000FCB84E80F007B6803F1120207F1080333
:106A200011461846FFF7ACFF78647B6C3B643B6C07
:106A3000002B01D03B6C75E07B689B7C87F83A307B
:106A400041F223533B877A6807F138031946012046
:106A5000FFF792FF78647B6CFB63FB6B002B01D02C
:106A6000FB6B5FE007F1180320220021184610F0AD
:106A700097FD41F224533B837B689B7CBB760123CB
:106A8000FB830123BB8397F8253043F0020387F88B
:106A9000253097F8253043F0100387F8253001237F
:106AA00087F82930012387F82B307B6818887B68AA
:106AB00003F10A0207F1180319460BF0E5FC7864AC
:106AC0007B6C002B01D07B6C2CE007F1180320229B
:106AD0000021184610F064FD41F225533B837B688A
:106AE0009B7CBB760123FB830123BB8397F8253076
:106AF00043F0020387F8253097F8253043F0080368
:106B000087F82530012387F82930012387F82A30B8
:106B10007B6818887B689A1C07F1180319460BF0EC
:106B2000B3FC034618464C37BD4690BDE0810300D8
:106B300080B582B000AF7860044B1B680449786868
:106B40009847034618460837BD4680BD743200207A
:106B50007C32002080B582B000AF7860044B5B6867
:106B6000044978689847034618460837BD4680BDF3
:106B7000743200207C32002080B400AF074B1B68C9
:106B8000002B05D0054B5B68002B01D0012300E0F2
:106B900000231846BD465DF8047B70477432002020
:106BA00080B584B000AF7860124B1B685B7E002B11
:106BB00001D006231AE07868FFF7BAFFF860FB6897
:106BC000002B04D10B4B1B6801225A760DE0FB68A9
:106BD0000F2B0AD1084A094BD31ADB081B0443F0D8
:106BE00001030749184608F023F8FB6818461037D8
:106BF000BD4680BD80320020CCB303008CB30300BF
:106C0000F081030080B582B000AF144B1B685B7E3F
:106C1000002B0ED00621012000F0E8F978607B6897
:106C2000002B04D00D4B1B685B69032098470023A1
:106C300010E00A4B1B6801221A760121012000F0A6
:106C4000D5F978607B68002B03D0044B1B680022C9
:106C50001A767B6818460837BD4680BD8032002012
:106C600080B584B000AF78603960FFF785FF0346D8
:106C7000002B32D07868FFF76DFFF860FB68082BB7
:106C80002CD0FB68002B11D1164B1B6800225A76C2
:106C90000121022000F0AAF9F860FB68002B1DD04A
:106CA000104B1B685B690320984717E00D4B1B686E
:106CB00000225A760621022000F098F9F860FB685D
:106CC000002B04D0074B1B685B6903209847054BDA
:106CD0001B685B690220984700E000BF1037BD4683
:106CE00080BD00BF8032002080B584B000AF7860E6
:106CF0000423FB737B681B7B012B02D0022B0FD07C
:106D000031E0FFF77FFFB860BB68002B02D10123A1
:106D1000FB732BE0BB68112B28D10623FB7325E006
:106D20007B685B7B142B03D87B685B7B002B02D1D9
:106D30000523FB731CE07B6803F10E017B685B7B22
:106D40001A461A4810F01EFC7B685B7B1A46184BEB
:106D50009A611748FFF724FFB860BB68002B07D182
:106D60000123FB7304E00223FB7302E000BF00E099
:106D700000BFFB7B012B14D07B681B7BFA7B114689
:106D8000184600F033F9B860BB68002B04D0094BFB
:106D90001B685B6903209847064B1B685B690220F0
:106DA000984700BF1037BD4680BD00BF8832002025
:106DB000843200208032002080B582B000AF064BC4
:106DC0001B685B690020984700F050F978607B6889
:106DD00018460837BD4680BD80320020ADDF7047C1
:106DE00000BF1846AEDF704700BF1846B0DF7047DF
:106DF00000BF18463CDF704700BF18463DDF7047B4
:106E000000BF184680B58AB000AF786007F1140360
:106E100010220021184610F0C3FB02233B75022309
:106E20003B8100237B8107F11003FB601A4B9B8899
:106E3000194A518907F108021846FFF7CFFF786217
:106E40007B6A002B0ED107F1100318460BF091FA64
:106E50000346002B06D0BB7E43F00103BB76002324
:106E60003B8302E040F2FD133B830B4B9B8807F111
:106E7000140211461846FFF7B9FF78627B6A112B9E
:106E8000F3D03B8B002B03D17868FFF72DFF00E098
:106E900000BF2837BD4680BDA032002080B584B039
:106EA00000AF78607B689A88134B9B889A421ED10A
:106EB0007B680633FB60FB681B78022B18D1FB68EC
:106EC0005A880D4BDB889A4212D1FB681B7A042B3F
:106ED0000ED0FB681B7A062B0AD0FB681B7A052BA9
:106EE00006D0FB6802331846FFF78CFF00E000BFB6
:106EF0001037BD4680BD00BFA032002080B483B0F3
:106F000000AF78607B689A88034B9A8000BF0C378B
:106F1000BD465DF8047B7047A032002080B483B08A
:106F200000AF7860084B9A887B689B889A4204D1AE
:106F3000054B4FF6FF729A8000E000BF0C37BD464C
:106F40005DF8047B704700BFA032002080B584B09C
:106F500000AF78607B680633FB60FB681A880B4BD8
:106F6000DB889A420DD1094B1B7E002B09D0FFF71D
:106F700023FFB860BB68002B03D0044B5B69022081
:106F8000984700BF1037BD4680BD00BFA03200202B
:106F900080B582B000AF786039607B68002B1ED06E
:106FA0007B681B88532B16D0532B1ADC512B0ED029
:106FB000512B16DC102B02D0112B04D011E0786875
:106FC000FFF79CFF0EE07868FFF7A8FF0AE07868FB
:106FD000FFF764FF06E07868FFF7B8FF02E000BF44
:106FE00000E000BF0837BD4680BD000080B58AB014
:106FF00000AF03460A46FB711346BB7103237B8433
:1070000007F10C0310220021184610F0C9FA7B8CFE
:107010003B8420233B77FB797B77BB79BB77124B93
:10702000DB88BB810223BB7300233B8207F1200373
:107030007B6107F11C03BB610B4B9B8807F10C02C2
:1070400011461846FFF7CEFE78627B6A002B05D109
:107050003B8C7A8C9A4201D00C237B627B6A184667
:107060002837BD4680BD00BFA032002080B584B067
:1070700000AF4FF0FF310020FFF7C0FEF860FB6863
:10708000BB60BB68002B01D0BB6813E0B1210020BE
:10709000FFF7B0FEF860FB687B607B68002B01D0D7
:1070A0007B6807E0054B5B6901209847022003F0ED
:1070B000A3FB002318461037BD4680BDA032002038
:1070C00080B400AFBFF34F8F00BF074BDB6803F402
:1070D000E0620549054B1343CB60BFF34F8F00BF00
:1070E00000BF00BFFCE700BF00ED00E00400FA05B0
:1070F00080B500AFFFF7E4FF42F20303184680BDFE
:1071000080B483B000AF78604FF0A04318460C37CE
:10711000BD465DF8047B704780B584B000AF7860F1
:10712000084611461A460346FB700B46BB701346D1
:107130007B703B1D1846FFF7E3FFF860FA78BB78D9
:107140005B001A437B789B001A433B7E1B0242EA9A
:1071500003013B7F1B047A681943FB6802F5E07268
:1071600043F8221000BF1037BD4680BD80B584B003
:1071700000AF78603B1D1846FFF7C2FFF860F86863
:1071800000F00AF802467B6822FA03F303F00103D9
:1071900018461037BD4680BD80B483B000AF78601C
:1071A0007B68D3F8103518460C37BD465DF8047B74
:1071B0007047000080B582B000AF786039607B68AE
:1071C000002B01D1054B7B603968786801F0A4FD84
:1071D000034618460837BD4680BD00BFA4830300A0
:1071E00080B582B000AF4FF48041002007F066FA0E
:1071F00078607B683B603B68002B04D0054A2A21FD
:10720000386804F0E0F907F0E1F900BF0837BD463F
:1072100080BD00BFFC82030080B582B000AF786003
:10722000044B1B78184601F0FDFD00BF0837BD4632
:1072300080BD00BF385B002080B584B002AF7860AD
:107240000B46FB707B680A2B1BD10A20FFF78EFFD1
:107250000346002B0AD00023019300230093002350
:10726000012200210C20FFF757FF0BE000230193C0
:10727000002300930123012201210C20FFF74CFF82
:1072800000E000BF00BF0837BD4680BD80B586B0B6
:1072900002AF002301930023009300230122002169
:1072A0000C20FFF739FF02F08DFDF860FB68BB6032
:1072B000BB68002B04D0184A6221B86804F083F937
:1072C00003233B7000237B70BB786FF30003BB701C
:1072D000BB786FF34103BB70BB786FF38203BB7065
:1072E00003237B703B460D4A19460A2002F0B4FD89
:1072F000F860FB687B607B68002B04D0064A6B213A
:10730000786804F060F901210A2002F015FE00BF40
:107310001037BD4680BD00BFFC82030039720200F9
:1073200080B584B000AF01F07BFAF860FB68BB6009
:10733000BB68002B04D0144A7A21B86804F043F9E2
:10734000002001F0D5FA04F095FEF860FB687B6040
:107350007B68002B04D00C4A8021786804F033F954
:107360000A4A01210A4804F0BBFEF860FB683B6052
:107370003B68002B04D0044A8421386804F023F9C8
:1073800000BF1037BD4680BDFC82030019720200A9
:10739000F882030080B582B000AF0B4B00224FF49F
:1073A0008041184604F0D0FE78607B683B603B6803
:1073B000002B04D0054A9021386804F004F900BF7E
:1073C0000837BD4680BD00BFC0320020FC820300EC
:1073D00080B500AF08F0BAF907F0A8FC034683F0C7
:1073E0000103DBB2002B01D003F0AAF900BF80BD7E
:1073F00080B500AF084A094BD31ADB081B0443F0E1
:1074000002030749184607F013FC07F08FFCFFF74B
:107410006FFE00BF80BD00BFCCB303008CB3030080
:107420000883030080B586B000AF134A3B4607CA05
:1074300083E807003B4611491846FFF7BBFE786119
:107440007B693B613B69002B04D00D4AB22138694E
:1074500004F0B9F80B4801F0B7FC78617B69FB6078
:10746000FB68002B04D0064AB421F86804F0ABF89E
:1074700000BF1837BD4680BD2C830300F1730200A6
:10748000FC820300385B002080B582B000AF03F0BF
:107490003FF978607B683B603B68002B04D0044A6E
:1074A000BE21386804F08FF800BF0837BD4680BDA4
:1074B000FC820300B0B588B002AF4FF080430122D8
:1074C000C3F87825FFF7E0FFFFF78AFE334A344B15
:1074D000D31ADB081B0443F003033249184607F0B4
:1074E000A7FBFFF71DFFFFF7D1FEFFF79BFF2E4A1B
:1074F0001421C02008F074F878617B693B613B6916
:10750000002B04D0294AE021386904F05CF800F02F
:1075100075FCF860FB68BB60BB68002B04D0234A95
:10752000E321B86804F04FF8FFF734FF1B4A1C4B07
:10753000D31ADB081B0443F003031D49184607F068
:1075400077FB01F031FC00F033FBF860FB687B60F7
:107550007B68002B1ED0114A114BD31ADB081B0489
:1075600043F00104134D786803F03AFE034600939C
:107570007B682A461049204607F092FB074A084BD1
:10758000D31ADB081B0443F00100084AEE230B4921
:1075900007F070FBFFF71CFFFCE700BFCCB3030054
:1075A0008CB3030038830300E0320020FC82030028
:1075B0004483030060830300748303008C8303000F
:1075C0006DDF704700BF184676DF704700BF184672
:1075D0007ADF704700BF18467CDF704700BF18464F
:1075E0008FDF704700BF184680B584B000AF786069
:1075F0007B68002B0AD0074B43F00103FB607B68DC
:107600009B01BB60FB68B868984700E000BF10377B
:10761000BD4680BDA084030080B483B000AF786015
:107620004FF0A04318460C37BD465DF8047B704709
:1076300080B584B000AF7860084611461A4603460C
:10764000FB700B46BB7013467B703B1D1846FFF763
:10765000E3FFF860FA78BB785B001A437B789B0005
:107660001A433B7E1B0242EA03013B7F1B047A68FC
:107670001943FB6802F5E07243F8221000BF10378F
:10768000BD4680BD80B582B000AF78607B68002BBE
:107690000AD04FF47A70FFF7A7FF7B68013B7B604D
:1076A0007B68002BF5D100E000BF0837BD4680BDE8
:1076B00080B588B000AF786039600023FB617B68DB
:1076C0001B88562B6DD0562B7DDC3B2B53D03B2B90
:1076D00079DC212B37D0212B75DC102B02D0112B1C
:1076E00021D070E03E4A3F4BD31ADB081B0443F025
:1076F00003033D49184607F09BFA7B689A883B4B89
:107700001A803A4B1B881946394808F0B1FFF861D6
:10771000FB69FB60FB68002B57D0364A3D21F868B7
:1077200003F051FF51E02E4A2E4BD31ADB081B0405
:1077300043F003033049184607F07AFA2B4B4FF613
:10774000FF721A8048E000233B7200237B727B6843
:107750009B8807F1080211461846FFF741FFF861C0
:10776000FB693B613B69002B31D0224A4E213869CD
:1077700003F029FF2BE01D4B4FF6FF721A807B6848
:107780009B8813211846FFF71FFFF861FB69BB6157
:10779000BB69002B1DD0174A5721B86903F013FFAE
:1077A00017E07B689B8813211846FFF70DFFF861EF
:1077B000FB697B617B69002B0DD00E4A5E217869E5
:1077C00003F001FF07E000BF06E000BF04E000BFD8
:1077D00002E000BF00E000BF00BF2037BD4680BD13
:1077E000CCB303008CB30300C483030048490020DA
:1077F00048430020D0830300E083030080B586B0B7
:1078000000AF08F01DFC78617B693B613B69002B90
:1078100004D0154A7121386903F0D5FE00237B603E
:107820003B1D1946012008F007F878617B69FB6071
:10783000FB68002B04D00C4A7721F86803F0C3FEE4
:107840003B1D184608F01AF978617B69BB60BB687C
:10785000002B04D0044A7B21B86803F0B4FE00BFBB
:107860001837BD4680BD00BFD083030080B584B00B
:1078700000AF0346FB71FB79042B4CD801A252F8F0
:1078800023F000BFE1780200997802001779020026
:10789000B1780200C9780200224A234BD31ADB08D0
:1078A0001B0443F003032149184607F0C1F935E0F2
:1078B0001C4A1D4BD31ADB081B0443F003031C496D
:1078C000184607F0B5F929E0164A174BD31ADB081A
:1078D0001B0443F003031749184607F0A9F91DE0FC
:1078E000104A114BD31ADB081B0443F0030312495F
:1078F000184607F09DF90421104809F0FFFDF860D3
:10790000FB68BB60BB68002B07D00D4A9E21B8689E
:1079100003F059FE01E000BF00E000BF00BF1037D8
:10792000BD4680BDCCB303008CB30300F0830300DD
:10793000088403001C840300308403006843002093
:10794000D0830300B0B586B002AF78607B68FB607F
:10795000FB68002B1ED0114A114BD31ADB081B0405
:1079600043F001040F4DF86803F03AFC034600931E
:10797000FB682A460C49204607F092F9074A084B53
:10798000D31ADB081B0443F00100084AA823084966
:1079900007F070F900BF1037BD46B0BDCCB303008F
:1079A0008CB30300448403005C840300D083030091
:1079B0007484030080B5B0B000AF5923A7F8AC3091
:1079C000284BC7F8B4300623A7F8B0303B46AC22AA
:1079D000002118460FF0E4FD02233B700123BB7029
:1079E0000623FB7000233B8200237B6107F1AC037D
:1079F0007B62012387F87C302823C7F8883040F663
:107A0000B833C7F88C30012387F87D304FF44873C2
:107A1000C7F8903044F25063C7F89430124BC7F85F
:107A2000A430124BC7F8A8303B461946104809F05D
:107A300085FCC7F8BC00D7F8BC30C7F8B830D7F819
:107A4000B830002B05D00B4AD521D7F8B80003F089
:107A5000BAFD0121064809F061FC00BFC037BD46F0
:107A600080BD00BF414900206D78020045790200C9
:107A700068430020D083030090B58DB002AF334837
:107A8000FFF79EFD78627B6A3B623B6A002B04D065
:107A90002F4AE721386A03F096FD3B7B012262F30F
:107AA00003033B733B7B012262F307133B73274BBA
:107AB0009B791946254B5B791C46244B1B791A464A
:107AC000224BDB7838460193009223460A4621492F
:107AD0000FF06EFD3B4618460FF092FD03469AB23A
:107AE000394607F10C031846FFF776FD78627B6A8A
:107AF000FB61FB69002B04D0154AEF21F86903F004
:107B000062FD07F110030822002118460FF048FD1E
:107B100008233B8210237B820023BB824FF4C8736F
:107B2000FB8207F110031846FFF752FD78627B6A6B
:107B3000BB61BB69002B04D0054AF921B86903F089
:107B400042FD00BF2C37BD4690BD00BF404900201C
:107B5000D08303008C84030080B584B000AF002183
:107B6000114809F090F8F860FB68BB60BB68002B17
:107B700005D00E4A4FF48171B86803F024FDF72157
:107B8000094809F0ACF8F860FB687B607B68002B63
:107B900005D0064A40F20511786803F014FD00BFD5
:107BA0001037BD4680BD00BF54430020D083030082
:107BB00080B500AF0421034809F0A0FC0346184635
:107BC00080BD00BF6843002080B582B000AF786000
:107BD000044A4FF48E71786803F0F5FC00BF083753
:107BE000BD4680BDD083030080B58AB000AF3B1D89
:107BF0001C22002118460FF0D3FC00237B604FF4B9
:107C0000A033BB604FF4F023FB6003233B740023DD
:107C10007B8201233B750023BB610B4BFB613B1D4A
:107C200018460BF057F978627B6A3B623B6A002B7F
:107C300005D0064A40F23311386A03F0C4FC00BF95
:107C40002837BD4680BD00BFC97B0200D08303003A
:107C500080B586B002AF78600B467B807B681B786E
:107C6000FB73FB7B012B02D0022B19D031E00023E8
:107C70000193002300930123012201210C20FFF72F
:107C8000D7FC4FF41670FFF7FDFC0023019300238F
:107C900000930023012200210C20FFF7C9FC18E00B
:107CA00000230193002300930123012201210C20D2
:107CB000FFF7BEFC4FF47A60FFF7E4FC002301936A
:107CC000002300930023012200210C20FFF7B0FCC9
:107CD00000BF00BF1037BD4680BD000080B582B038
:107CE00000AF03463960FB8013467B717B1D044A5D
:107CF0000121184607F0B2FC00BF0837BD4680BD21
:107D0000517C0200B0B586B002AF78607B68FB6042
:107D1000FB68002B1FD0154A154BD31ADB081B0438
:107D200043F00104134DF86803F05AFA0346009338
:107D3000FB682A461049204606F0B2FF0B4A0C4B5E
:107D4000D31ADB081B0443F001000C4A40F26D1308
:107D50000B4906F08FFF094A4FF4B771786803F0BA
:107D600032FC00BF1037BD46B0BD00BFCCB303002E
:107D70008CB303009C8403005C840300D083030065
:107D80007484030080B586B000AF0023BB60164B3F
:107D9000BB6007F108031946144808F042FC7861FB
:107DA0007B693B613B69002B05D0114A40F27F1192
:107DB000386903F008FC00237B600E4B7B603B1DA1
:107DC00019460D48FEF718FE78617B69FB60FB6879
:107DD000002B05D0064A40F28711F86803F0F3FB48
:107DE00000BF1837BD4680BD057D02004843002016
:107DF000D0830300DD7C02002849002080B500AF5D
:107E0000FFF7FCFCFFF738FEFFF7A6FEFFF7D2FDF9
:107E1000FFF7B8FFFFF7E8FE0023184680BD80B5E6
:107E200082B000AF78600B46FB70FB780A2B03D161
:107E30000D217868FFF7F3FF7B681A687B689B6801
:107E4000581C796888601344FA781A707B689A68BD
:107E50007B685B689A4202D3786800F023FB00BF1E
:107E60000837BD4680BD80B586B000AFF860B96008
:107E70007A603B6000237B613B6803F00103002BC9
:107E800021D00AE0BB680133BB607B6901337B61B1
:107E9000FB7C1946F868FFF7C2FFBB681B78FB74D0
:107EA000FB7C002BEED106E07B68013B7B60202150
:107EB000F868FFF7B4FF7A687B699A422BD97B6830
:107EC000002BF1D127E0BB68002B0BD0B8680FF076
:107ED00097FB786106E07B68013B7B602021F868B6
:107EE000FFF79DFF7A687B699A420ED97B68002B69
:107EF000F1D10AE0BB680133BB607B6901337B6170
:107F0000FB7C1946F868FFF78AFFBB681B78FB7497
:107F1000FB7C002BEED100BF1837BD4680BD0000B2
:107F200080B588B000AFF860B9607A603B60BB682C
:107F3000FB610123BB6107E0FA697B68B2FBF3F3E5
:107F4000FB61BB690133BB61FA697B689A42F3D27A
:107F50003A68BB699A4201D93B68BB61FB6A03F08E
:107F60000103002B1FD1BB6A002B1CD0FB6A03F05E
:107F70000203002B05D03B68002B02D13023FB7598
:107F800001E02023FB7507E0BB6A013BBB62FB7D80
:107F90001946F868FFF743FFBB6A002B03D0BA69A4
:107FA000BB6A9A42F0D30123FB613B68012B03D9E2
:107FB0003B68013B3B6009E0BA68FB69B2FBF3F345
:107FC0003B613A697B689A4200D205E0FB697A68B6
:107FD00002FB03F3FB61E8E7BA68FB69B2FBF3F36A
:107FE0003B613B69FA6902FB03F3BA68D31ABB60D1
:107FF000154A3B6913441B781946F868FFF70FFFD1
:10800000FA697B68B2FBF3F3FB61FB69002BE3D1F8
:10801000FB6A03F00103002B11D0BB6A002B0ED0CA
:1080200006E0BB6A013BBB622021F868FFF7F7FE60
:10803000BB6A002B03D0BA69BB6A9A42F1D300BF76
:108040002037BD4680BD00BFA884030080B588B03E
:1080500002AFF860B9607A603B60BB68002BB8BFC4
:108060005B423B6101237B6107E07B683A6992FBDD
:10807000F3F33B617B6901337B617B683A699A4228
:10808000F3DA3A687B699A4201D93B687B613B6AC3
:10809000002B0AD0BB68002B04DB7B6A03F00403CF
:1080A000002B02D03B6A013B3B627B6A03F0020378
:1080B000002B02D03B68002B16D07B6A03F0010333
:1080C000002B11D13B6A002B0ED006E03B6A013B2E
:1080D0003B622021F868FFF7A2FE3B6A002B03D029
:1080E0007A693B6A9A42F1D3BB68002B07DABB6816
:1080F0005B42BB602D21F868FFF791FE08E07B6AC8
:1081000003F00403002B03D02B21F868FFF787FE50
:108110007B6A03F00203002B19D07B6A03F0010392
:10812000002B14D13B68002B11D13B6A002B0ED0E1
:1081300006E03B6A013B3B623021F868FFF76FFEC7
:108140003B6A002B03D07A693B6A9A42F1D3B96843
:108150007B6A01933B6A00933B687A68F868FFF793
:10816000DFFE00BF1837BD4680BD000080B58EB071
:1081700002AFF860B9607A60BB68002B00F08E81B6
:10818000BB681B7887F82F30BB680133BB6097F85A
:108190002F30002B00F0798197F82F30252B40F0FD
:1081A000688100233B620123BB62BB681B7887F8B0
:1081B0002F3097F82F30302B0DD0302B1BDC2B2B92
:1081C00011D02D2B17D13B6A43F001033B62BB68F2
:1081D0000133BB6012E03B6A43F002033B62BB68C1
:1081E0000133BB600AE03B6A43F004033B62BB68B7
:1081F0000133BB6002E00023BB6200BFBB6A002BFF
:10820000D3D10023FB6197F82F302A2B0CD17B6848
:108210001B68191D7A6811601B68FA691344FB61B9
:10822000BB680133BB601AE0BB681B7887F82F304E
:1082300097F82F302F2B12D997F82F30392B0ED8D3
:10824000BB680133BB60FA6913469B0013445B00B3
:108250001A4697F82F301344303BFB61D3E70023D5
:108260007B62BB681B7887F82F3097F82F302E2B56
:108270001DD1BB680133BB60BB681B7887F82F300A
:1082800097F82F302F2B12D997F82F30392B0ED883
:10829000BB680133BB607A6A13469B0013445B00E2
:1082A0001A4697F82F301344303B7B62E4E7BB68F3
:1082B0001B7887F82F3097F82F306C2B03D097F866
:1082C0002F30682B07D1BB680133BB60BB681B78BC
:1082D00087F82F30EFE797F82F30252B00F0BF807D
:1082E000252BC0F2C180782B00F3BE80582BC0F242
:1082F000BB80583B202B00F2B78001A252F823F03C
:10830000EB83020069840200698402006984020030
:1083100069840200698402006984020069840200A1
:108320006984020069840200698402008583020076
:10833000A383020069840200698402006984020048
:1083400069840200A3830200698402006984020038
:108350006984020069840200698402006984020061
:108360002B84020069840200698402000F840200E9
:1083700069840200C78302006984020069840200E4
:10838000EB8302007B681B68191D7A6811601B680B
:10839000BB62BB6AFB75FB7D1946F868FFF73FFDC2
:1083A00063E07B681B68191D7A6811601B68BB62FB
:1083B0003B6A0193FB6900937B6A0A22B96AF868F9
:1083C000FFF744FE51E07B681B68191D7A68116055
:1083D0001B68BB62B96A3B6A0193FB6900937B6AC5
:1083E0000A22F868FFF79CFD3FE07B681B68191DB7
:1083F0007A6811601B68BB62B96A3B6A0193FB69CA
:1084000000937B6A1022F868FFF78AFD2DE07B68F5
:108410001B68191D7A6811601B68BB613B6AFA69A9
:10842000B969F868FFF71FFD1FE07B681B68191D1D
:108430007A6811601B68BB623021F868FFF7EFFCB7
:108440007821F868FFF7EBFCB96A00230193082351
:10845000009308231022F868FFF762FD05E025214C
:10846000F868FFF7DCFC00E000BFBB680133BB60CD
:1084700005E097F82F301946F868FFF7D0FCBB6885
:108480001B78002B7FF47CAE00E000BFFB681B7BF9
:10849000002B04D0F86800F005F800E000BF30378A
:1084A000BD4680BD80B582B000AF78607B689B68B8
:1084B000002B0CD07B685B697A6810697A68116858
:1084C0007A68926898477B6800229A6000E000BF53
:1084D0000837BD4680BD0EB480B585B000AF78606A
:1084E000FB69002B0CD00023FB6007F12003FB602D
:1084F00007F10C031A46F9697868FFF737FE00E0C8
:1085000000BF1437BD46BDE8804003B0704700008F
:1085100080B582B000AF1F4B7B607B6802221A617E
:108520007B6802225A617B681B4A9A617B681B4AFE
:10853000DA617B684FF400721A627B6800229A62EB
:108540007B6800225A627B680022DA627B68124AEA
:108550009A647B68124ADA647B6810221A657B6829
:1085600000229A657B6800225A657B680022DA65E2
:108570007B6807330B4918460FF03AF87B680A49C5
:1085800018460FF035F87B6820229A7100BF083733
:10859000BD4680BD3C5B0020B88403004C490020F0
:1085A0004C4B0020C4840300C884030080B588B00D
:1085B00000AFF860B9607A600023BB61FB68DB68DC
:1085C0007B61FB681B693B613A697B699A4205D90B
:1085D0003A697B69D31A013BFB6107E0FB689A6843
:1085E00039697B69CB1A1344013BFB61FB689A68CC
:1085F0007B69D31AFA69934228BF1346FB61FA6973
:108600007B68934228BF1346FB61FB685A687B690D
:108610001344FA69B96818460EF0B4FFBA69FB69E9
:108620001344BB61BA68FB691344BB607A68FB6999
:10863000D31A7B607A69FB6913447B61FB689B6892
:108640007A699A4201D100237B61FB687A69DA601A
:108650007B68002BB5D1BB6918462037BD4680BD6D
:1086600080B588B000AFF860B9607A60FB68DB68FD
:10867000FB61FB689A68FB69D31ABB61BA697B68C6
:108680009A420ED9FB685A68FB6913447A68B96844
:1086900018460EF077FFFA697B681A44FB68DA60C7
:1086A0001AE0BB697B61FB685A68FB6913447A690D
:1086B000B96818460EF066FF7A68BB69D31A7B6109
:1086C000FB685868BA68BB6913447A6919460EF0AA
:1086D00059FFFB687A69DA6000BF2037BD4680BD6C
:1086E00080B487B000AF78607B681B693B617B68B2
:1086F000DB68FB603A69FB689A4208D87B689A6835
:10870000FB68D21A3B691344013B7B6104E03A6980
:10871000FB68D31A013B7B617B6918461C37BD4659
:108720005DF8047B7047000080B588B000AFF8604A
:10873000B9607A60BB68BB61FB685A1C13465B007A
:108740001344DB001F4A13447B617B695B69022B86
:1087500029D0022B2ED8002B02D0012B13D029E0D8
:108760007869FFF7BDFF38613A697B689A4202D2A7
:108770000023FB6121E07B68FB617A68B969786955
:10878000FFF76EFF19E07869FFF7AAFF38617A6892
:108790003B69934228BF1346FB61FA69B96978695E
:1087A000FFF75EFF09E07A68B9697869FFF7FEFEB6
:1087B000F86102E00023FB6100BFFB691846203727
:1087C000BD4680BD3C5B002080B500AFFFF7A0FE3A
:1087D00000BF80BD80B483B000AF0346FB71FB795E
:1087E00003F01F02074997F907305B09012000FADF
:1087F00002F2203341F8232000BF0C37BD465DF85C
:10880000047B704700E100E080B500AF00F0BFFCE2
:10881000024B00229A7000BF80BD00BF5C4B00205D
:1088200080B582B000AF00237B60144B1B78002B17
:1088300002D085237B601CE0104B00229A600F4B16
:1088400000225A600D4B00221A610C4B0022DA60A4
:108850000B4800F063FC786007F0A0FC034683F04F
:108860000103DBB2002B01D000F078FC034B0122A6
:108870001A707B6818460837BD4680BD5C4B0020E7
:10888000018A020080B485B000AF786039607B68EF
:108890001B68FB6006E0FA683B689A420DD0FB68F3
:1088A0001B68FB60FB68002BF5D17B681A683B688E
:1088B0001A607B683A681A6000E000BF1437BD4652
:1088C0005DF8047B704780B485B000AF78607B684A
:1088D0001B68FB60FB68002B03D0FB681A687B6891
:1088E0001A60FB6818461437BD465DF8047B704774
:1088F00080B584B000AF78601E4B9B78DBB2002B54
:1089000017D07B68002B03D07B685B6801209847F9
:108910000023FB7307F10F03184602F019F8154BFB
:10892000DB680133134AD360FB7B184602F01BF867
:108930001CE00023BB7307F10E03184602F008F891
:108940007B68002B03D079680B48FFF79BFF094B2E
:10895000DB68002B01D100F00AFC064BDB68013319
:10896000044AD360BB7B184601F0FDFF00BF1037FF
:10897000BD4680BD5C4B00206C4B002080B582B0B2
:1089800000AF0023FB71FB1D184601F0E1FF094B0E
:10899000DB68013B074AD360064BDB68002B01D143
:1089A000FFF732FFFB79184601F0DDFF00BF083703
:1089B000BD4680BD5C4B002080B584B000AF03464F
:1089C000FB71FB79002B02D10B4BFB6001E00B4BE1
:1089D000FB60F868FFF777FFB860BB68002B05D035
:1089E000BB685B68FA7910469847F2E700BF00BFA2
:1089F0001037BD4680BD00BF644B00206C4B00208B
:108A000080B582B000AF0346FB71FB79002B05D126
:108A1000094B01225A700020FFF7CEFFFB79012B92
:108A200005D1054B01229A700120FFF7C5FF00BF59
:108A30000837BD4680BD00BF5C4B002080B582B0CA
:108A400000AF786039607B68002B05D1044B0122B0
:108A50005A700020FFF7B0FF00BF0837BD4680BD49
:108A60005C4B002080B584B000AF03463960FB71D9
:108A7000FB79032B27D0032B2ADC002B02D0012B00
:108A800004D025E00020FFF7A5FE22E00023FB73C1
:108A900007F10F03184601F05BFF104B1B7883F0C2
:108AA0000103DBB2002B01D0FFF7BAFE0B4BDB68F2
:108AB00001330A4AD360094B01229A70FB7B1846A6
:108AC00001F051FF05E000F049FBFFF757FF00E020
:108AD00000BF00BF1037BD4680BD00BF5C4B00200B
:108AE00080B483B000AF0346FB71FB7903F01F0233
:108AF000074997F907305B09012000FA02F241F8B3
:108B0000232000BF0C37BD465DF8047B704700BFD3
:108B100000E100E080B483B000AF03463960FB7130
:108B200097F90730002B0BDA3B68DAB20C49FB7976
:108B300003F00F03043B5201D2B20B441A7609E052
:108B40003B68DAB2074997F907305201D2B20B44B9
:108B500083F8002300BF0C37BD465DF8047B7047E7
:108B600000ED00E000E100E080B582B000AF034618
:108B70000A46FB711346BB71BA7997F90730114663
:108B80001846FFF7C7FF00BF0837BD4680BD80B558
:108B900082B000AF0346FB7197F907301846FFF724
:108BA0009FFF00BF0837BD4680BD000080B483B082
:108BB00000AF0346FB71054AFB79C2F80C3500BFD4
:108BC0000C37BD465DF8047B704700BF00000140D4
:108BD00080B483B000AF0346FB71FB7903F180439F
:108BE00003F5803301221A6000BF0C37BD465DF8E3
:108BF000047B704780B485B000AF0346FB80FB88E0
:108C000003F1804303F5803300221A60FB8803F1EF
:108C1000804303F580331B68FB60FB6800BF14379B
:108C2000BD465DF8047B704780B483B000AF034657
:108C3000FB80FB8803F1804303F580331B68002B26
:108C400014BF01230023DBB218460C37BD465DF884
:108C5000047B704780B483B000AF7860044A7B68BF
:108C6000C2F8043300BF0C37BD465DF8047B704783
:108C70000000014080B483B000AF7860044A7B6894
:108C8000C2F8043500BF0C37BD465DF8047B704761
:108C90000000014080B483B000AF0346FB71084B75
:108CA000D3F80825FB79012101FA03F304491343A2
:108CB000C1F8083500BF0C37BD465DF8047B70472E
:108CC0000000014080B483B000AF0346FB71064A48
:108CD000FB7903F5C073054942F8231000BF0C3738
:108CE000BD465DF8047B7047000001403546526E7A
:108CF00080B500AF4FF48070FFF796FF0346002B5E
:108D000006D0044B1B6898474FF48070FFF772FF42
:108D100000BF80BD744B002080B586B000AF786086
:108D200039601F4A3B6813601E4B1B78002B2FD104
:108D30001C4B01221A707B681B781846FFF736FF20
:108D40007B685B681A464FF000034FF000004FF05D
:108D50000001D90341EA5241D0034FF47A724FF037
:108D600000030FF0B5F802460B46C7E904233B6940
:108D70001846FFF77FFF7B681B7A19461020FFF724
:108D8000F3FE1020FFF703FF0023FB60FB6802E007
:108D90000823FB60FB6818461837BD4680BD00BF3E
:108DA000744B0020704B002080B500AF0120FFF70E
:108DB00051FF0020FFF70CFF024B02221A7000BF88
:108DC00080BD00BF704B002080B584B000AF7860DC
:108DD0000023FB7207F10B03184601F0B9FD104B9D
:108DE0001B78072B11D80E4B1A787B681A700C4B26
:108DF0001B780133DAB20A4B1A707B681B7818466D
:108E0000FFF748FF0023FB6001E00423FB60FB7ACF
:108E1000184601F0A8FDFB6818461037BD4680BD16
:108E2000714B002080B582B000AF0346FB71FB7927
:108E30001846FFF747FF00BF0837BD4680BD00005A
:108E400080B483B000AF0346FB71FB7903F01F02CF
:108E5000074997F907305B09012000FA02F241F84F
:108E6000232000BF0C37BD465DF8047B704700BF70
:108E700000E100E080B483B000AF03463960FB71CD
:108E800097F90730002B0BDA3B68DAB20C49FB7913
:108E900003F00F03043B5201D2B20B441A7609E0EF
:108EA0003B68DAB2074997F907305201D2B20B4456
:108EB00083F8002300BF0C37BD465DF8047B704784
:108EC00000ED00E000E100E080B483B000AF786026
:108ED0007B681B0B5BB218460C37BD465DF8047B04
:108EE000704780B582B000AF03460A46FB71134657
:108EF000BB71BA7997F9073011461846FFF7BAFFE8
:108F000000BF0837BD4680BD80B582B000AF0346C4
:108F1000FB7197F907301846FFF792FF00BF08373B
:108F2000BD4680BD80B483B000AF0346FB71114ADB
:108F300097F90730002B00DA1F335B115BB252F850
:108F4000232097F90730594203F01F0301F01F0156
:108F500058BF4B425BB222FA03F303F00103002B2C
:108F600014BF01230023DBB218460C37BD465DF861
:108F7000047B704700E100E080B483B000AF78600C
:108F80004FF080427B68C2F8043300BF0C37BD4607
:108F90005DF8047B704780B483B000AF78604FF019
:108FA00080427B68C2F8083300BF0C37BD465DF8CD
:108FB000047B704780B483B000AF0346FB71FB793C
:108FC00003F1804301221A6000BF0C37BD465DF8F3
:108FD000047B704780B485B000AF0346FB80FB88FC
:108FE00003F1804300221A60FB8803F180431B6871
:108FF000FB60FB6800BF1437BD465DF8047B70471B
:1090000080B483B000AF0346FB80FB8803F180434C
:109010001B68002B14BF01230023DBB218460C375A
:10902000BD465DF8047B704780B483B000AF7860C4
:109030004FF080427B68C2F8183500BF0C37BD4640
:109040005DF8047B704780B400AF4FF08043D3F8E5
:1090500018341B0C03F00103002B14BF0123002361
:10906000DBB21846BD465DF8047B704780B582B020
:1090700000AF0623FB714FF08040FFF725FF03464A
:109080001846FFF74FFF034683F00103DBB2002BC6
:1090900012D04FF08040FFF717FF03461A46FB79C6
:1090A00019461046FFF71DFF4FF08040FFF70CFFF9
:1090B00003461846FFF728FF00BF0837BD4680BDAE
:1090C00080B485B000AF134BDB68FB60114AFB68CE
:1090D00043F08073D360104B1B68BB600E4ABB68C3
:1090E00043F0010313600C4B5B687B6000BF0A4BCD
:1090F0005A687B68D31AB3F50A5FF8D3064ABB688F
:109100001360044AFB68D36000BF1437BD465DF8A6
:10911000047B7047F0ED00E0001000E080B485B003
:1091200000AF78600023FB600B4B1B79002B02D053
:109130008523FB6008E0084A7B681360064B012228
:109140001A71054B00225A71FB6818461437BD4648
:109150005DF8047B704700BF784B002080B500AFFE
:10916000FFF784FF0120FFF75FFF00BF80BD80B5E0
:1091700000AF4FF48270FFF72DFF0220FFF7FCFED7
:10918000FFF79EFF0820FFF715FF00BF80BD80B5E9
:1091900000AF0C20FFF70EFF00BFFFF754FF0346A0
:1091A000002BFAD100BF00BF80BD000080B500AF2A
:1091B0004FF48070FFF724FF0346002B14D04FF4C8
:1091C0008070FFF707FF0120FFF7E5FE104B5B798A
:1091D00083F00103DBB2002B06D00D4B01225A7144
:1091E0000B4B1B68002098474FF48270FFF708FF75
:1091F0000346002B0AD04FF48270FFF7EBFE0220EB
:10920000FFF7C9FE024B1B680120984700BF80BDD5
:10921000784B002080B483B000AF0346FB71FB792C
:1092200003F1804303F5E04301221A6000BF0C37CD
:10923000BD465DF8047B704780B483B000AF034641
:10924000FB80FB8803F1804303F5E0431B68002BA0
:1092500014BF01230023DBB218460C37BD465DF86E
:10926000047B704780B485B000AF0346FB80FB8869
:1092700003F1804303F5E04300221A60FB8803F109
:10928000804303F5E0431B68FB60FB6800BF1437B5
:10929000BD465DF8047B704780B483B000AF786052
:1092A0003960074A7B68C2F82C36054A3B68C2F829
:1092B000303600BF0C37BD465DF8047B704700BFF9
:1092C0000070004080B58CB000AF4FF48270FFF7A3
:1092D000B3FF0346002B45D04FF48270FFF7C2FF67
:1092E000874B93F82E3083F00103DBB2002B04D1BF
:1092F000834B93F82F30002B34D000233B76804BE8
:109300005B68FB617E4B1B899BB23B847C4BDB68BB
:10931000002B03D17A4B00221A7419E0784B1A8B78
:10932000774B5A83764BDB68754A5360744B1A8BC4
:10933000734B1A81724B0022DA60714B93F82E3016
:1093400083F00103DBB2002B02D00020FFF762FFA5
:109350006B4B1B6807F1180210469847684B0022B8
:1093600083F82F20664B93F82E30002B62D04FF4F9
:109370008070FFF761FF0346002B5BD04FF48070D5
:10938000FFF770FF5E4B5A8B5D4B93F82D309BB20D
:109390009A421CD95A4B5A8B594B93F82D309BB299
:1093A000D31A9AB2564B5A83554B5A68544B1B8961
:1093B0009BB21946524B5B8BCB1A5B001344504A4D
:1093C00092F82D2011461846FFF766FF2BE04C4B14
:1093D0005A8B4B4B93F82D309BB29A4214D1484B89
:1093E000DB68002B10D0464B012283F82F20444B22
:1093F00000225A83424BDB68414A92F82D201146E5
:109400001846FFF749FF0EE03D4B5A8B3C4B93F853
:109410002D309BB29A4206D1394B012283F82F207E
:10942000374B00225A834FF48270FFF71BFF042052
:10943000FFF7F0FE4FF48870FFF7FEFE0346002BA7
:109440000ED04FF48870FFF70DFF2D4B00221A74D9
:1094500002233B732A4B1B6807F10C021046984706
:109460004FF48A70FFF7E8FE0346002B07D04FF455
:109470008A70FFF7F7FE224B00221A743CE0204B63
:109480005B69FB6235E0FB6AB3FA83F3BB624FF0C2
:109490000042BB6A22FA03F3DB43FA6A1340FB6221
:1094A000BB6A9BB246339BB29B00FB84FB8C184685
:1094B000FFF7C2FE0346002B1BD0FB8C1846FFF7BC
:1094C000D1FE01233B70FB8CA3F58C73DB08DBB270
:1094D0003B71FB8CA3F58C7303F00403002B0CBFD2
:1094E00001230023DBB27B71054B1B683A46104613
:1094F0009847FB6A002BC6D100BF3037BD4680BD00
:10950000804B002080B485B000AF78600B467B8034
:109510007B887A68134400221A607B887A68134437
:109520001B68FB60FB6800BF1437BD465DF8047B19
:10953000704780B483B000AF78600B467B807B8837
:109540007A6813441B68002B14BF01230023DBB28D
:1095500018460C37BD465DF8047B704780B483B075
:1095600000AF786039607B68D3F804233B68134010
:10957000002B14BF01230023DBB218460C37BD4675
:109580005DF8047B704780B483B000AF78607B687F
:109590009B0003F5A0739BB218460C37BD465DF8DF
:1095A000047B704780B483B000AF78604FF48032A2
:1095B0007B6802FA03F318460C37BD465DF8047B5E
:1095C000704780B586B000AFF860B9601346FB7194
:1095D0000023FB7528E0FB7D1846FFF7D4FF034608
:1095E000BB82FB7D1846FFF7DDFF3861BB8A194659
:1095F000F868FFF79EFF0346002B12D03969F86820
:10960000FFF7ACFF0346002B0BD0BB8A1946F86866
:10961000FFF778FFBB681B68BA685168BA8A1046C2
:109620009847FB7D0133FB75FA7DFB799A42D2D3D3
:1096300000BF00BF1837BD4680BD000080B500AF39
:10964000042203490348FFF7BCFF00BF80BD00BFF1
:10965000B04B00200080004080B500AF04220349D9
:109660000348FFF7AEFF00BF80BD00BFBC4B00202A
:109670000090004080B500AF042203490348FFF783
:10968000A0FF00BF80BD00BFC84B002000A000406D
:1096900080B500AF024B1B68984700BF80BD00BF7C
:1096A000D44B002080B483B000AF0346FB71FB793C
:1096B00003F01F02074997F907305B09012000FA00
:1096C00002F241F8232000BF0C37BD465DF8047B51
:1096D000704700BF00E100E080B483B000AF0346F4
:1096E0003960FB7197F90730002B0BDA3B68DAB26F
:1096F0000C49FB7903F00F03043B5201D2B20B4437
:109700001A7609E03B68DAB2074997F90730520147
:10971000D2B20B4483F8002300BF0C37BD465DF87E
:10972000047B704700ED00E000E100E080B582B00E
:1097300000AF03460A46FB711346BB71BA7997F92D
:10974000073011461846FFF7C7FF00BF0837BD4670
:1097500080BD80B582B000AF0346FB7197F907303A
:109760001846FFF79FFF00BF0837BD4680BD80B594
:1097700082B000AF0346FB80FB88184600F024F857
:1097800003461B68012B0CBF01230023DBB21846E4
:109790000837BD4680BD80B584B000AF0346FB806E
:1097A000FB88184600F010F803461A4600231360A1
:1097B000FB88184600F008F803461B68FB60FB684E
:1097C00000BF1037BD4680BD80B483B000AF0346F4
:1097D000FB80FB8803F1804303F5C04318460C3738
:1097E000BD465DF8047B704780B483B000AF7860FD
:1097F000044A7B68C2F8043300BF0C37BD465DF8ED
:10980000047B70470060004080B483B000AF786094
:10981000054BD3F804237B68134018460C37BD462C
:109820005DF8047B704700BF0060004080B483B0E7
:1098300000AF7860094A7B6803F5A27352F82330C1
:10984000064943F001027B6803F5A27341F8232027
:1098500000BF0C37BD465DF8047B704700600040D8
:1098600080B485B000AFF860B9601346FB71164A4A
:10987000FB6803F5A27352F82330134923F44733EE
:1098800023F44073FA6802F5A27241F822300E4ABE
:10989000FB6803F5A27352F82320BB681B0203F494
:1098A000F851FB791B0403F440330B4306491A4378
:1098B000FB6803F5A27341F8232000BF1437BD46AF
:1098C0005DF8047B704700BF0060004080B483B047
:1098D00000AF7860074A7B6803F5A27352F8233023
:1098E0001B0A03F01F0318460C37BD465DF8047BC6
:1098F000704700BF0060004080B483B000AF786064
:10990000074A7B6803F5A27352F823301B0C03F05F
:109910000303DBB218460C37BD465DF8047B704785
:109920000060004080B483B000AF78604FF0A04387
:1099300018460C37BD465DF8047B704780B584B08F
:1099400000AF7860084611461A460346FB700B4686
:10995000BB7013467B703B1D1846FFF7E3FFF860B2
:10996000FA78BB785B001A437B789B001A433B7EF6
:109970001B0242EA03013B7F1B047A681943FB6820
:1099800002F5E07243F8221000BF1037BD4680BDDB
:1099900080B584B002AF78600B46FB70FB78002284
:1099A000019200220092002200217868FFF7C6FF92
:1099B00000BF0837BD4680BD80B584B000AF786079
:1099C0003B1D1846FFF7AEFFF8607A68FB6802F5AA
:1099D000E07253F8223023F00203BB607A68FB6820
:1099E00002F5E072B96843F8221000BF1037BD4697
:1099F00080BD80B584B000AF78600B46FB703B1D26
:109A00001846FFF78FFFF8607A68FB6802F5E0728E
:109A100053F822307A6823F44031FB6802F5E07293
:109A200043F822107A68FB6802F5E07253F822309E
:109A3000FA78120411467A681943FB6802F5E0725D
:109A400043F8221000BF1037BD4680BD80B584B0FA
:109A500000AF78603B1D1846FFF764FFF860F868B8
:109A600000F021F802467B6822FA03F303F00103B9
:109A700018461037BD4680BD80B584B000AF786011
:109A80003B1D1846FFF74EFFF8607A68FB6802F549
:109A9000E07253F822301B0C03F00303DBB21846CC
:109AA0001037BD4680BD80B483B000AF78607B685E
:109AB000D3F8103518460C37BD465DF8047B704767
:109AC00080B586B000AFF860B9607A604FF0A0430F
:109AD0003B61FB687B6112E07B699B0007F1180228
:109AE000134453F8083C1846FFF7DDFF02467B6835
:109AF0001A607B6804337B607B6901337B61FA68A1
:109B0000BB6813447A699A42E6D300BF00BF183796
:109B1000BD4680BD80B485B000AF786039603B68D9
:109B2000FB607B68DB08BB607B6803F007037B603E
:109B300001227B6802FA03F3F968BA680A441278D2
:109B4000134018461437BD465DF8047B704780B457
:109B500085B000AF786039603B68FB607B68DB08EC
:109B6000BB607B6803F007037B60FA68BB68134443
:109B70001B785AB201217B6801FA03F35BB21343ED
:109B800059B2FA68BB681344CAB21A7000BF1437DE
:109B9000BD465DF8047B704780B483B000AF786049
:109BA0000D4A7B681344303393F90030002B09DBF6
:109BB000094A7B681344303393F90030072B01DCEA
:109BC000012300E0002303F00103DBB218460C3749
:109BD000BD465DF8047B7047DC4B002080B483B049
:109BE00000AF7860084A7B681344303393F9003043
:109BF000072BCCBF01230023DBB218460C37BD4630
:109C00005DF8047B704700BFDC4B002080B483B05C
:109C100000AF7860074A7B681344303393F9003013
:109C2000DB43DBB2DB09DBB218460C37BD465DF81F
:109C3000047B7047DC4B002080B485B000AFF86037
:109C4000B9607A60FB70BB6859B2104AFB68134474
:109C500030330A461A700D49BB687A6841F82320F0
:109C6000FB7883F00103DBB2002B08D0BB68083B14
:109C7000FA6851B2054A13440A4683F8502000BFDF
:109C80001437BD465DF8047B704700BFDC4B0020F5
:109C900080B483B000AF7860054A7B6813443033EA
:109CA000FF221A7000BF0C37BD465DF8047B704779
:109CB000DC4B002080B582B000AF78600349786843
:109CC000FFF745FF00BF0837BD4680BD304C002080
:109CD00080B483B000AF7860054A7B6813443033AA
:109CE00093F9003018460C37BD465DF8047B704789
:109CF000DC4B002080B483B000AF7860044A7B68FE
:109D000052F8233018460C37BD465DF8047B704787
:109D1000DC4B002080B588B000AFF860B960134616
:109D2000FB71FF23FB77FB79002B01D0002300E0C0
:109D300008237B61FB79002B01D0082300E00C2372
:109D40003B617B69BB6112E00E4ABB6952F823306C
:109D5000B3F1FF3F08D1FB79BA68B969F868FFF73A
:109D60006BFFBB69FB7706E0BB690133BB61BA6976
:109D70003B699A42E8D397F91F3018462037BD4611
:109D800080BD00BFDC4B002080B483B000AF034631
:109D9000FB71FB790A4A4FF0FF3142F82310FB793F
:109DA000072B06D9FB79083B054A1344FF2283F8A9
:109DB000502000BF0C37BD465DF8047B704700BFE4
:109DC000DC4B002080B582B000AF214B93F85830B7
:109DD000002B03D008237B607B6834E00023FB70FA
:109DE00006E0FB781846FFF753FFFB780133FB7062
:109DF000FB781F2BF5D90023FB7006E0FB78184693
:109E0000FFF7C2FFFB780133FB70FB780B2BF5D912
:109E1000042200210F480DF0C3FB06210620FFF7A6
:109E200085FC0620FFF795FC4FF4BE70FFF7B3FCEE
:109E30004FF00040FFF7D8FC054B012283F8582073
:109E400000237B607B6818460837BD4680BD00BF95
:109E5000DC4B0020304C002080B586B000AFF860AD
:109E6000B9607A6000237B61F868FFF7CFFE034694
:109E7000002B02D008237B6156E0BB689B78C3F3BC
:109E80004003DBB21A467968F868FFF743FF0346E0
:109E9000FB7497F91330B3F1FF3F43D0BB689B7855
:109EA000C3F38003DBB283F00103DBB2002B13D0DA
:109EB000BB689B7803F00103DBB2002B03D0F8688A
:109EC000FFF77AFD05E0BB685B781946F868FFF795
:109ED0005FFDF868FFF7EEFEBB689B7803F00203B6
:109EE000DBB2002B08D097F91300BB681B781A4629
:109EF000F968FFF7B5FC17E097F91330083B0D4AF6
:109F0000134493F95010BB681B789B015AB297F920
:109F10001330083B0A4351B2064A13440A4683F8F9
:109F2000502001E004237B617B6918461837BD4649
:109F300080BD00BFDC4B002080B588B000AF7860EA
:109F40000B46FB707868FFF749FE0346002B27D0CD
:109F50007868FFF7BDFE0346083B2A4A134493F98D
:109F60005030FB73FB7B9B09BB73BB7B032B0AD17C
:109F70007868FFF76BFD0346002B01D0032300E058
:109F80000223FB7706E0BB7B012B01D1022300E01B
:109F90000323FB77FB7F19467868FFF72AFD2DE046
:109FA0007868FFF7F9FD0346002B27D07868FFF7A4
:109FB0008FFE0346BB61BB699BB240339BB29B00E3
:109FC000FB82BB691846FFF731FCFB8A1846FFF796
:109FD000E2FBFB78002B11D07868FFF779FE03468F
:109FE0001846FFF787FE38613B69002B06D0012237
:109FF000BB6902FA03F31846FFF7F6FB00BF2037F0
:10A00000BD4680BDDC4B002080B594B000AF00237E
:10A010003B640023FB604FF480737B870123BB64A8
:10A020000023FB631DE07B8F1846FFF7A0FB034670
:10A03000002B0DD0B86CFFF7E7FB0346002B07D0D1
:10A040007B8F1846FFF7A7FB3A6CBB6C13433B644E
:10A05000BB6C5B00BB647B8F04337B87FB6B013382
:10A06000FB63FB6B072BDED94FF4BE70FFF77FFB62
:10A070000346002B0ED04FF4BE70FFF78CFB3B6CF9
:10A0800043F000433B6407F10C031A460121002012
:10A09000FFF716FD3B6CDBB2002B29D00123BB641C
:10A0A0000023FB6321E0BA6C3B6C1340002B16D0FD
:10A0B000F86BFFF70BFC7863F86BFFF71DFC0346AA
:10A0C00087F83330F86BFFF715FEF862FB6A002B58
:10A0D00005D097F83320FB6A1146786B9847BB6C24
:10A0E0005B00BB64FB6B0133FB63FB6B072BDAD9B3
:10A0F0003B6C002B80F2F180002387F84F30002367
:10A10000BB6000237B640BE07B6C9B0007F150027B
:10A1100013444FF0FF3243F84C2C7B6C01337B64CB
:10A120007B6C002BF0D0002387F84F300023FB63BB
:10A1300074E06C4AFB6B1344503393F9003087F89A
:10A140002B3097F82B3023F0C0037B62654AFB6B02
:10A150001344503393F90030B3F1FF3F5BD03B1D04
:10A160001946786AFFF7D6FC0346002B53D097F8C0
:10A170002B309B0987F82330786AFFF7A9FD034647
:10A180001846FFF7B7FDF861FB69002B03D197F87C
:10A190002330032B3FD197F82330032B05D107F150
:10A1A00008031946786AFFF7D2FC786AFFF764FC67
:10A1B0000346FB7607F10C031946786AFFF7AAFC01
:10A1C00078617B69002B02D0FB7E022B05D07B6976
:10A1D000002B20D1FB7E032B1DD197F82330032BBE
:10A1E00010D1FB7E022B01D1032300E00223FB747C
:10A1F000FB7C1946786AFFF7FCFB97F84F30013378
:10A2000087F84F30FB69002B05D097F82320FB69B6
:10A210001146786A9847FB6B0133FB63FB6B032B9A
:10A2200087D997F84F30002B52D0012387F84E3052
:10A230003B461A4601210020FFF742FC00237B64C5
:10A2400016E07B6C9B0007F15002134453F8502C2E
:10A250007B6C9B0007F150010B4453F8443C9A423D
:10A2600003D0002387F84E3005E07B6C01337B641C
:10A270007B6C002BE5D097F84E30002B03D00023E9
:10A2800087F84F3024E000237B641EE07B6C9B004A
:10A2900007F15002134453F8502C7B6C9B0007F1DC
:10A2A00050010B4443F8442C7B6C9B0007F1500297
:10A2B000134453F8482C7B6C9B0007F150010B446E
:10A2C00043F84C2C7B6C01337B647B6C002BDDD022
:10A2D00097F84F30002B7FF426AF00BF5037BD46B4
:10A2E00080BD00BFDC4B002080B485B000AF78603B
:10A2F0000B467B807B887A68134400221A607B8837
:10A300007A6813441B68FB60FB6800BF1437BD46C6
:10A310005DF8047B704780B483B000AF78600B4673
:10A32000FB70FA787B68C3F81C2500BF0C37BD466C
:10A330005DF8047B704780B483B000AF78607B68C1
:10A34000D3F81835DBB218460C37BD465DF8047BF0
:10A35000704780B483B000AF78604FF0A0431846D8
:10A360000C37BD465DF8047B704780B584B000AF04
:10A3700078603B1D1846FFF7ECFFF8607B68012210
:10A3800002FA03F31946F86800F004F800BF10372A
:10A39000BD4680BD80B483B000AF786039607B6813
:10A3A0003A68C3F8082500BF0C37BD465DF8047B4A
:10A3B000704780B582B000AF78607B689B7FFF2BD1
:10A3C00004D07B689B7F1846FFF7CFFF7B68002295
:10A3D0005A777B6800221A727B681B687A6802F1E0
:10A3E00008007A6852681146984700BF0837BD4692
:10A3F00080BD80B584B000AF786039607868FFF7C1
:10A400009AFF0346FB723B685A6A3B689B699A4213
:10A4100007D23B685A693B685B6A1344FA7AD2B246
:10A420001A703B685B6A5A1C3B685A623B685B6AFD
:10A430000133FB603B6893F82830002B0FD03B685A
:10A440001B69FA689A4202D23B68FA681A613B6853
:10A450009B69FA689A4202D23B68FA689A613B6843
:10A460001B69FA689A420AD23B68DA68FB681344AF
:10A470001B7819467868FFF74EFF01231FE03B6801
:10A480009B69FA689A4208D23B6893F820301946D3
:10A490007868FFF740FF012311E03B685A6A3B6888
:10A4A0001B699A4205D33B685A6A3B689B699A428A
:10A4B00001D2012300E0002303F00103DBB21846C0
:10A4C0001037BD4680BD80B582B000AF786039607E
:10A4D0004FF484717868FFF707FF39687868FFF7F1
:10A4E00088FF034683F00103DBB2002B02D03868FB
:10A4F000FFF75FFF00BF0837BD4680BD80B500AFE6
:10A5000002490348FFF7DFFF00BF80BD384C002041
:10A510000030004080B487B000AFF860B9607A6066
:10A520000123FB75FB7D224AFB681360204ABB6850
:10A5300053601F4A7B689360FB6844F201029342B8
:10A5400013D0FB6844F20202934221D17B68184A7F
:10A55000D360174BDB681B881A46154B9A61144B66
:10A56000DB685B68124AD36112E07B68104A1361B2
:10A570000F4B1B699B680E4A53610D4B1B691B688F
:10A580000B4A93610A4B1B695B68094AD36100BFA0
:10A5900072B600BF00BFFB7DDBB2002BFBD162B601
:10A5A00000BF00BF1C37BD465DF8047B704700BF8D
:10A5B000644C002080B483B000AF0346FB71FB798C
:10A5C00003F01F02074997F907305B09012000FAE1
:10A5D00002F2603341F8232000BF0C37BD465DF81E
:10A5E000047B704700E100E080B400AFBFF34F8F01
:10A5F00000BF074BDB6803F4E0620549054B1343DA
:10A60000CB60BFF34F8F00BF00BF00BFFCE700BFB0
:10A6100000ED00E00400FA0580B483B000AF78607C
:10A620007B685B6818460C37BD465DF8047B704755
:10A6300080B483B000AF78607B6800221A60BFF3FB
:10A640005F8F00BF00BF0C37BD465DF8047B7047CD
:10A6500080B584B000AF78600121786800F07DFC9F
:10A66000F860BFF35F8F00BFFB68002B0CBF0123B6
:10A670000023DBB218461037BD4680BD80B483B0DE
:10A6800000AF7860BFF35F8F00BF7B6800221A6065
:10A6900000BF0C37BD465DF8047B704733DF704761
:10A6A00000BF184641DF704700BF184680B400AFB6
:10A6B0004FF080430122C3F80025BFF34F8F00BF46
:10A6C00020BF00BFFCE780B584B000AF0023FB7063
:10A6D000FB1C184600F03CF9F1EE103A7B607B68F9
:10A6E000FB60FB6823F09F03BB60BB68E1EE103AA0
:10A6F00000BFBFF35F8F00BF2620FFF75BFFFB7833
:10A70000184600F030F900BF1037BD4680BD00008C
:10A7100080B500AF064B00221A700648FFF788FF8D
:10A720000549064800F01CFD0023184680BD00BF07
:10A730008C4C0020884C002014850300904C002095
:10A7400080B582B000AFFFF7BEFF05F027FD0346DE
:10A75000002B03D0FFF7A6FF786005E020BF00BF05
:10A7600040BF00BF20BF00BF00BF0837BD4680BD4F
:10A7700080B582B000AF0FE01D48FFF74DFF786055
:10A780007B681B681B4A1278104698470346002BCB
:10A7900029D0174800F001FD1548FFF73DFF03469B
:10A7A000002BE9D104F0ECFC00BF04F0BFFA034633
:10A7B000002BFAD10F4B1B78032B03D00D4B1B78CA
:10A7C000022B02D1FFF710FF0EE005F0E7FC034675
:10A7D000002B05D0FFF762FF386020BF00BFFCE709
:10A7E000FFF764FF00E000BF0837BD4680BD00BF33
:10A7F000904C0020844C002080B582B000AF03460E
:10A80000FB711248FFF724FF034683F00103DBB21C
:10A81000002B16D1FB79042B0DD00D4B1B78002B90
:10A8200003D00A48FFF72AFF0CE00A4AFB791370AD
:10A83000074B01221A70FFF79BFF0448FFF71EFF2A
:10A8400000E000BF0837BD4680BD00BF884C002037
:10A850008C4C0020844C002080B483B000AFEFF318
:10A8600010833B603B687B6072B600BF7B68184614
:10A870000C37BD465DF8047B704780B400AF62B60C
:10A8800000BF00BFBD465DF8047B704780B584B053
:10A8900000AF7860FFF7E0FFF860164B9B68002B75
:10A8A0001BD1144B01229A60134BD3F88020134B19
:10A8B0001340104A1360104B104AC3F880200E4B0F
:10A8C000D3F884300B4A53600B4B4FF0FF32C3F880
:10A8D00084207B6800221A7002E07B6801221A70D3
:10A8E000FB68002B01D1FFF7C8FF00231846103783
:10A8F000BD4680BDB45B002000E100E0FC06FFBD6A
:10A9000080B584B000AF0346FB710F4B9B68002BF2
:10A9100015D0FB79002B12D1FFF79EFFF8600B4A90
:10A92000094B1B681360094A074B5B685360064B71
:10A9300000229A60FB68002B01D1FFF79EFF0023E5
:10A9400018461037BD4680BDB45B002000E100E032
:10A9500080B582B000AF78607868FFF797FF00BFDE
:10A960000837BD4680BD80B582B000AF0346FB719D
:10A97000FB791846FFF7C4FF00BF0837BD4680BD0E
:10A98000B0B58AB004AFF860B9607A6072B600BF43
:10A9900004F0F6FB00BF04F0C9F90346002BFAD11E
:10A9A000FB6844F2020293422FD0FB6844F2020299
:10A9B000934269D8FB6844F20102934237D0FB68A6
:10A9C00044F2010293425FD8FB68012B05D0FB687B
:10A9D00041F2010293420CD056E03A4A3A4BD31A64
:10A9E000DB081B0443F001033849184604F020F942
:10A9F00057E0344A344BD31ADB081B0443F00103FD
:10AA00003349184604F014F94BE07B687B612D4A0A
:10AA10002D4BD31ADB081B0443F001007B695B68F4
:10AA20001A467B691B882B4904F024F939E07B68BE
:10AA30003B61244A244BD31ADB081B0443F0010476
:10AA40003B699D683B699B68184600F0C9FB03465B
:10AA500018463B695B6819463B691B68BA680292F5
:10AA60000193009103462A461B49204604F030F921
:10AA7000144A154BD31ADB081B0443F00103174992
:10AA8000184604F0D5F80CE00E4A0F4BD31ADB0839
:10AA90001B0443F00103BA681149184604F0D7F8C3
:10AAA00000BF104B1B6803F00103002B00D000BE59
:10AAB0007A68B968F868FFF72DFD00BF1837BD4602
:10AAC000B0BD00BFCCB303008CB3030020850300EE
:10AAD000408503006485030080850300A88503008A
:10AAE000BC850300F0ED00E080B582B000AF786077
:10AAF000786803F099FB034618460837BD4680BDC9
:10AB000080B58AB000AF786039607B681B8A043BEF
:10AB1000FB613A68FB691344DA1CFB69B2FBF3F38F
:10AB2000FB76786803F0ACFB78617B69002B01D180
:10AB3000002337E07B6900221A717B6901225A7178
:10AB4000FB699AB27B69DA807B697B62FB7E013BA1
:10AB50003B617B6A7A681A6000233B621DE078687B
:10AB600003F08EFBF860FB68002B0ED07B695B79ED
:10AB70000133DAB27B695A717B6AFA681A60FB6842
:10AB80007A681A60FB687B6204E0786900F00EF86E
:10AB9000002307E03B6A01333B623A6A3B699A4211
:10ABA000DDD37B6918462837BD4680BD80B58AB0A5
:10ABB00000AF78607B68FB61FB695B79FB767B6843
:10ABC0003B62FB7E013B7B6100237B6205E03B6ACD
:10ABD0001B683B627B6A01337B627A6A7B699A42BB
:10ABE000F5D33B6A1B683B617B683B6200237B6259
:10ABF0000BE03B6A1B68FB60396A386903F07AFB3B
:10AC0000FB683B627B6A01337B62FB7E7A6A9A4215
:10AC1000EFD300BF00BF2837BD4680BD80B584B0EC
:10AC200000AF78607B68FB60FB6804330121184645
:10AC300000F028FA00BF1037BD4680BD80B586B051
:10AC400000AF78607B687B617B6904330121184623
:10AC500000F031FA0346FB6007F10C033B613B69EE
:10AC60001B78002B02D17868FFF7A0FF00BF1837D0
:10AC7000BD4680BD80B590B000AFF860B9607A6025
:10AC80003B60FB687B62FB68FB637B6ADB881A4680
:10AC90007B6A5B7903FB02F3043B3B627B6ADB88E4
:10ACA000FB613B681A1DFB69B2FBF3F3BB633B68B6
:10ACB0000433FA69B3FBF2F2F96901FB02F29B1A61
:10ACC0007B637B681A683B6813443A6A9A4203D2F2
:10ACD0003A6A3B68D31A01E07B681B683B637B6878
:10ACE0003A6B1A6005E0FB6B1B68FB63BB6B013BB7
:10ACF000BB63BB6B002BF6D10023FB62FA697B6B55
:10AD0000D31ABB62BA6A3B6B934228BF1346BB623D
:10AD10002AE0BA68FB6A1344BB61FA6B7B6B13448D
:10AD200004337B6197F84830002B05D0BA6A796903
:10AD3000B8690CF027FC04E0BA6AB96978690CF0CC
:10AD400021FC00237B63FB6B1B68FB633A6BBB6AD4
:10AD5000D31A3B63FA6ABB6A1344FB62FA693B6B22
:10AD6000934228BF1346BB623B6B002BD1D100BF7F
:10AD700000BF4037BD4680BD80B588B002AFF860E7
:10AD8000B9607A603B607B687B6107F11402002345
:10AD900000933B68B968F868FFF76CFF00BF18378D
:10ADA000BD4680BD80B588B002AFF860B9607A60FA
:10ADB0003B607B687B6107F11402012300933B68D1
:10ADC000B968F868FFF756FF00BF1837BD4680BD69
:10ADD00080B584B000AF786039603B685B099B0048
:10ADE0007A681A443B6803F01F03012101FA03F358
:10ADF0001946104600F0E2F8F86000BF1037BD4673
:10AE000080BD80B582B000AF786039603B685B0977
:10AE10009B007A681A443B6803F01F03012101FA82
:10AE200003F31946104600F0B0F802463B6803F001
:10AE30001F0322FA03F303F00103002B14BF0123C5
:10AE40000023DBB218460837BD4680BD80B584B00C
:10AE500000AF786039603B685B099B007A681A44F0
:10AE60003B6803F01F03012101FA03F3DB4319469A
:10AE7000104600F0D5F8F86000BF1037BD4680BD21
:10AE800080B483B000AF786039603B685B099B0099
:10AE90007A6813441A683B6803F01F0322FA03F32D
:10AEA00003F00103002B14BF01230023DBB218467B
:10AEB0000C37BD465DF8047B704780B58AB000AFA3
:10AEC0007860396000237B623BE07B6A9B007A6894
:10AED00013441B68DB43BB61BB6993FAA3F37B613B
:10AEE0007B69B3FA83F33B6223E07B6A5B013A6AD6
:10AEF0001344FB61FA693B689A421ED2F96978688B
:10AF0000FFF77FFF034683F00103DBB2002B01D084
:10AF1000FB691EE07B6A9B007A6813441B68DB4375
:10AF20003B613B6993FAA3F3FB60FB68B3FA83F3DD
:10AF30003B623B6A1F2BD8D900E000BF7B6A01331C
:10AF40007B623B68013B5B0901337A6A9A42BCD35E
:10AF50003B6818462837BD4680BD90B486B000AF28
:10AF6000786039607B683A6853E8004F104643E8E0
:10AF7000000191F0000FF7D17C613861F9607B69C5
:10AF800018461837BD4690BC704790B486B000AFE5
:10AF9000786039607B683A6853E8004F44EA020001
:10AFA00043E8000191F0000FF6D17C613861F9604F
:10AFB0007B6918461837BD4690BC704790B486B080
:10AFC00000AF786039607B683A6853E8004F44EA24
:10AFD000020043E8000191F0000FF6D17C61386176
:10AFE000F9603B6918461837BD4690BC704790B46D
:10AFF00086B000AF786039607B683A6853E8004FEC
:10B0000004EA020043E8000191F0000FF6D17C61F0
:10B010003861F9607B6918461837BD4690BC7047A7
:10B0200090B486B000AF786039607B683A6853E8C6
:10B03000004F04EA020043E8000191F0000FF6D14E
:10B040007C613861F9603B6918461837BD4690BC91
:10B05000704790B486B000AF786039607B683A681A
:10B0600053E8004F04EB020043E8000191F0000FA9
:10B07000F6D17C613861F9607B6918461837BD46A6
:10B0800090BC704790B486B000AF786039607B6840
:10B090003A6853E8004F04EB020043E8000191F0E6
:10B0A000000FF6D17C613861F9603B6918461837AA
:10B0B000BD4690BC704790B486B000AF78603960F0
:10B0C0007B683A6853E8004FA4EB020043E80001B4
:10B0D00091F0000FF6D17C613861F9603B69184648
:10B0E0001837BD4690BC704780B582B000AF78601D
:10B0F00001217868FFF762FF034618460837BD460E
:10B1000080BD80B582B000AF786000217868FFF71D
:10B110006EFF034618460837BD4680BD80B483B035
:10B1200000AF78607B689B6800229A607B689B68B0
:10B1300000221A617B689B6800225A617B689B68C9
:10B140000022DA607B689B6800225A607B689B68FB
:10B1500000221A6000BF0C37BD465DF8047B7047C3
:10B1600080B483B000AF786039607B683A681A6059
:10B170007B681B681A687B685A607B685A687B68C2
:10B180001B685B689A4202D17B6800225A6000BF4C
:10B190000C37BD465DF8047B704780B483B000AFC8
:10B1A00078607B685B68002B14D07B685B681A460C
:10B1B0007B681B689B6813441A467B685A607B68EF
:10B1C0005A687B681B685B689A4204D17B680022DE
:10B1D0005A6000E000BF0C37BD465DF8047B704745
:10B1E00080B584B000AF7860786800F00DF8F86042
:10B1F000FB68002B01D0FB6800E0024B18461037BB
:10B20000BD4680BDD485030080B487B000AF7860B0
:10B21000174B7B61174B3B611FE03A697B69D31A7F
:10B22000DB10DA0F13445B10DB007A691344FB6018
:10B23000FB681B68BB60BA687B689A4202D9FB68EE
:10B240003B610AE0BA687B689A4203D2FB68083324
:10B250007B6102E0FB685B6804E07A693B699A42C3
:10B26000DBD3002318461C37BD465DF8047B7047CE
:10B27000D4890300FC8A030080B483B000AF7860F7
:10B280007B689B68044A1278134418460C37BD4605
:10B290005DF8047B704700BFFC8A030080B483B074
:10B2A00000AF786039607B689B683A689A4202D246
:10B2B0003B68013300E0002318460C37BD465DF8BB
:10B2C000047B704780B584B000AF78607B681B68F2
:10B2D0001B68FB607B681B685B68BB60BA68FB68C7
:10B2E0009A4203D3BA68FB68D31A07E07868FFF77D
:10B2F000C3FF0246FB68D21ABB68134418461037D6
:10B30000BD4680BD80B584B000AF78607B681B68A7
:10B310001B68FB607B681B685B68BB60B96878680A
:10B32000FFF7BCFF0246FB6893420CBF01230023DA
:10B33000DBB218461037BD4680BD000090B589B01D
:10B3400000AF786039600023BB610023FB7307F115
:10B350000F031846FFF7FCFA7868FFF7D3FF0346A0
:10B36000FB77FB7F83F00103DBB2002B03D17B680B
:10B370001B7C002B79D17B681B685B687B617B68D9
:10B380001B685A687B681C6811467868FFF786FF5F
:10B3900003466360FB7F002B0AD07B681B681A683A
:10B3A0007B681C6811467868FFF778FF03462360C6
:10B3B0007B68DB68013B072B37D801A252F823F0EA
:10B3C000E1B30200F1B302002BB4020003B40200A7
:10B3D0002BB402002BB402002BB4020015B40200FF
:10B3E0007B685A687B6913443A6812781A702DE0BA
:10B3F0007B685A687B695B0013443A6812881A803C
:10B4000024E07B685A687B699B0013443A681268A1
:10B410001A601BE07B685A687B69DB00D1183B68C7
:10B42000D3E90023C1E9002310E07B685B6819467B
:10B430007B68DB687A6902FB03F30B4418467B6880
:10B44000DB681A4639680CF09DF800BF7868FFF792
:10B4500039FF38617B681B689B683A699A4207D953
:10B460007B681B683A699A6002E00423BB6100E0D4
:10B4700000BFFB7B1846FFF776FABB6918462437F6
:10B48000BD4690BD90B589B000AFF860B960134675
:10B49000FB710023FB610023FB7507F117031846BE
:10B4A000FFF756FAF86800F075F8034683F00103D9
:10B4B000DBB2002B62D0FB681B681B68BB61FB79A9
:10B4C00083F00103DBB2002B0AD0FB681B681A680B
:10B4D000FB681C681146F868FFF7E0FE034623602E
:10B4E000FB68DB68013B072B37D801A252F823F039
:10B4F00011B5020021B502005BB5020033B50200B0
:10B500005BB502005BB502005BB5020045B5020009
:10B51000FB685A68BB6913441A78BB681A702FE03D
:10B52000FB685A68BB695B0013441A88BB681A80C1
:10B5300026E0FB685A68BB699B0013441A68BB6825
:10B540001A601DE0FB685A68BB69DB001344D3E94D
:10B550000023B968C1E9002312E0FB685B68194663
:10B56000FB68DB68BA6902FB03F30B441946FB680E
:10B57000DB681A46B8680CF005F801E00523FB61AA
:10B58000FB7D1846FFF7EFF9FB6918462437BD46E7
:10B5900090BD00BF80B485B000AF78607B681B6849
:10B5A0001B68FB607B681B685B68BB60FA68BB68F4
:10B5B0009A420CBF01230023DBB218461437BD4664
:10B5C0005DF8047B704700B583B002900091019252
:10B5D00044F2010071466A46FFF7D2F903B000BD9C
:10B5E00000BF000080B483B000AF0346FB71FB795D
:10B5F00003F01F02074997F907305B09012000FAA1
:10B6000002F241F8232000BF0C37BD465DF8047BF1
:10B61000704700BF00E100E080B483B000AF034694
:10B62000FB71FB7903F01F02074997F907305B09AB
:10B63000012000FA02F2203341F8232000BF0C372A
:10B64000BD465DF8047B704700E100E080B483B044
:10B6500000AF0346FB71FB7903F01F02074997F91E
:10B6600007305B09012000FA02F2403341F8232041
:10B6700000BF0C37BD465DF8047B704700E100E079
:10B6800080B483B000AF0346FB71FB7903F01F0267
:10B69000074997F907305B09012000FA02F260338D
:10B6A00041F8232000BF0C37BD465DF8047B70478E
:10B6B00000E100E080B483B000AF03463960FB7165
:10B6C00097F90730002B0BDA3B68DAB20C49FB79AB
:10B6D00003F00F03043B5201D2B20B441A7609E087
:10B6E0003B68DAB2074997F907305201D2B20B44EE
:10B6F00083F8002300BF0C37BD465DF8047B70471C
:10B7000000ED00E000E100E080B584B000AF7860BB
:10B710007B68002B0AD0074B43F00103FB607B687A
:10B720009B01BB60FB68B868984700E000BF10371A
:10B73000BD4680BD008B030080B582B000AF78604D
:10B74000054A7B68C2F8083506211120FFF7B2FFD1
:10B7500000BF0837BD4680BD0010014080B500AF76
:10B760000D4B4FF48032C3F844230B4B4FF480321F
:10B77000C3F804231120FFF783FF1120FFF732FFE6
:10B78000054B01221A602F20FFF7BEFF034B012259
:10B790001A7000BF80BD00BF00100140765100202C
:10B7A00080B500AF1120FFF737FF0F4B4FF4803209
:10B7B000C3F848230C4B4FF48032C3F808230A4BDC
:10B7C00001225A602F20FFF79FFF074B01229A604A
:10B7D000064B00221A602F20FFF796FF044B002231
:10B7E0001A7000BF80BD00BF0010014068510020EA
:10B7F0007651002080B400AF034BD3F804351846CF
:10B80000BD465DF8047B70470010014080B483B0F2
:10B8100000AF786039607A683B68D31A23F07F43C1
:10B8200018460C37BD465DF8047B704780B483B082
:10B8300000AF7860044A7B68C2F8403500BF0C371F
:10B84000BD465DF8047B70470010014080B487B0AE
:10B8500000AF7860294B1B68002B03D1274A7B6817
:10B86000136045E07B681A68244B1B681B689A428A
:10B8700010D8224B1B6819687B681A681F4B1B681D
:10B880008A1A1A601D4B1A687B68DA611B4A7B684A
:10B8900013602DE07B681B68FB60184B1B687B61A5
:10B8A000164B1B683B6109E03B691B68FA68D31AB9
:10B8B000FB603B697B613B69DB693B613B69002B5A
:10B8C00004D03B691B68FA689A42EDD83B69002BAB
:10B8D00005D03B691A68FB68D21A3B691A607B681D
:10B8E000FA681A607B683A69DA617B697A68DA61BA
:10B8F00000BF1C37BD465DF8047B704764510020D3
:10B9000080B586B000AF7860294B1B68FB60284B80
:10B910001B687B617B693B6108E03A697B689A42FE
:10B9200008D03B697B613B69DB693B613B69002B6C
:10B93000F3D100E000BF3B69002B01D1002333E0CD
:10B940007A693B699A4214D1194B1B68DB69184A22
:10B950001360174B1B68002B0BD1164B01229A600A
:10B96000154B00221A60154B01221A702F20FFF789
:10B97000CBFE3B691B68BB603B69DA697B69DA61B6
:10B980007B69DB693B613B69002B05D03B691A6829
:10B99000BB681A443B691A60054B1B68FA689A42F7
:10B9A00014BF01230023DBB218461837BD4680BD03
:10B9B00064510020001001406851002077510020A0
:10B9C00080B500AF1120FFF741FE00BF80BD80B5FC
:10B9D00000AF1420FFF73AFE00BF80BD80B582B0F3
:10B9E00000AF78607B685B697A6892691046984717
:10B9F00000BF0837BD4680BD80B584B000AF2B4B7B
:10BA00001B68002B4ED000237B60FFF7F3FE02463D
:10BA1000274B1B6819461046FFF7F8FEB860234B0A
:10BA20001B68FB601DE0FB681B68BA689A421CD368
:10BA3000FB681B68BA68D31ABB60FB681B687A682E
:10BA400013447B60FB683B60FB68DB69FB603B6821
:10BA50001B7C002B05D03B6800221A743868FFF766
:10BA6000BDFFFB68002BDED100E000BF114B1A7850
:10BA7000114B1B789A420CD10F4B1B780133DAB271
:10BA80000D4B1A700C4B1B78022B02D10A4B002273
:10BA90001A70094B1B781946084A7B6842F8213016
:10BAA000FFF795FF00BF1037BD4680BD64510020F1
:10BAB0006851002074510020755100206C51002005
:10BAC00080B483B000AF7860194B1A78194B1B789B
:10BAD0009A4223D0164B1B780133DAB2144B1A70FA
